:1000000017C031C030C02FC07FC12DC02CC02BC045
:100010002AC029C028C027C026C025C024C001028C
:1000200004081020010101010101003600380037E9
:1000300011241FBECFE5D2E0DEBFCDBF10E0A0E6A9
:10004000B0E0EEE9F5E002C005900D92A037B107EF
:10005000D9F720E0A0E7B0E001C01D92AF38B207A9
:10006000E1F797D29AC2CCCF96D160937400709387
:100070007500809376009093770081E08093710003
:1000800061E084E0F5D160E084E029C262E080E0D4
:10009000EFD161E081E0ECD161E082E0E9D161E0A3
:1000A00083E0E6D160E084E0E3D161E081E017D253
:1000B00060E082E014D260E083E011D2D5DF61E03D
:1000C00083E00DD26CE271E080E090E094D160E0DA
:1000D00083E005C20F931F936091730081E068274E
:1000E000FED16091730082E0FAD180917300882381
:1000F00039F061E089E0BCD160E089E0F0D103C073
:1001000060E089E0B5D1809180009091810018165F
:1001100019062CF080917200882309F441C03BD16C
:10012000009178001091790020917A0030917B0045
:10013000601B710B820B930B0091600010916100AA
:100140002091620030916300601771078207930766
:1001500038F16091720081E0682783E0C0D120917E
:100160007200222381F0809180009091810001979C
:1001700090938100809380001816190624F0109245
:1001800081001092800081E082278093720003D169
:10019000609378007093790080937A0090937B004D
:1001A00080917100882319F1F6D0009174001091AC
:1001B00075002091760030917700601B710B820BE7
:1001C000930B0091640010916500209166003091BE
:1001D0006700601771078207930748F060E084E0CA
:1001E00047D18091710091E08927809371001F9120
:1001F0000F9108950F931F9380E0A0D190938500F5
:1002000080938400209182003091830082179307AD
:10021000A1F0C1D060937C0070937D0080937E003C
:1002200090937F008091840090918500909383004B
:100230008093820081E080937000ADD000917C00BB
:1002400010917D0020917E0030917F00601B710B2A
:10025000820B930B009168001091690020916A0055
:1002600030916B006017710782079307C8F1809186
:10027000840090918500892B99F58DD000917C00A8
:1002800010917D0020917E0030917F00601B710BEA
:10029000820B930B00916C0010916D0020916E0009
:1002A00030916F000617170728073907C8F48091A7
:1002B00070008823A9F08091730091E089278093D2
:1002C000730081110AC081E090E0909381008093D7
:1002D0008000CADE1092700003C082E090E0F5CF8B
:1002E0001F910F91089586DFF5CE83B7887F83BF76
:1002F0008AB58C7F81608ABD83B7877F83BF83B7D0
:10030000887F836083BF089578941F920F920FB601
:100310000F9211242F933F938F939F93AF93BF938B
:100320008091870090918800A0918900B0918A0007
:10033000309186002CE7230F2D3728F02FEF230F65
:100340000196A11DB11D2093860080938700909394
:100350008800A0938900B0938A0080918B009091CF
:100360008C00A0918D00B0918E000196A11DB11D51
:1003700080938B0090938C00A0938D00B0938E009F
:10038000BF91AF919F918F913F912F910F900FBE91
:100390000F901F9018952FB7F89460918700709177
:1003A00088008091890090918A002FBF08953FB7FF
:1003B000F89480918B0090918C00A0918D00B09169
:1003C0008E002FB508B602FE05C02F3F19F001962A
:1003D000A11DB11D3FBF6627782F892F9A2F620F6D
:1003E000711D811D911D42E0660F771F881F991FA7
:1003F0004A95D1F70895CF92DF92EF92FF92CF9373
:10040000DF936B017C01D3DFEB01C114D104E10464
:10041000F10471F0CCDF6C1B7D0B683E7340A8F3D8
:1004200081E0C81AD108E108F108C851DC4FEDCFCE
:10043000DF91CF91FF90EF90DF90CF900895789467
:1004400080B7806880BF80B7806480BF8CB58064CF
:100450008CBD8FEF8DBD80B7807F876080BF89B7EF
:10046000846089BF42DF86B1876086B9379A089574
:10047000CF93DF9390E0FC01E25EFF4F2491FC01FB
:10048000EC5DFF4F8491882339F190E0FC01E25D3F
:10049000FF4FA491B0E0FC01E45DFF4F8491611136
:1004A00006C09FB7F8948C912095822313C06230C8
:1004B00069F4C82FD0E09FB7F8948C91322F309513
:1004C00083238C938881822B888305C09FB7F894FF
:1004D0008C91822B8C939FBFDF91CF910895A82F91
:1004E000B0E0FD01E25EFF4F9491FD01EC5DFF4F36
:1004F000E491EE2311F1811103C08AB58F7304C01A
:10050000813021F48AB58F7C8ABD05C0843019F40E
:100510008CB58F7C8CBDF0E0E45DFF4FA491B0E022
:100520002FB7611105C0F8948C919095892303C071
:10053000F8948C91892B8C932FBF0895282F30E04D
:10054000F901E25EFF4F9491F901EC5DFF4FE491F8
:10055000EE23E1F0811103C08AB58F7304C08130AE
:1005600021F48AB58F7C8ABD05C0843019F48CB51E
:100570008F7C8CBDF0E0E65DFF4FE491F0E02081E0
:10058000292381E090E021F480E0089580E090E06C
:0E059000089555DF7BDDA7DEFECFF894FFCF88
:10059E00C8000000E803000032000000D007000091
:00000001FF
