:1000000026C040C03FC03EC03DC0EDC03BC03AC06E
:1000100039C038C037C036C035C034C033C0000026
:10002000000036000000000037000000000038002B
:10003000020202020202020202020102040810206D
:100040002004100801020000040000000000112438
:100050001FBECFE5D2E0DEBFCDBF10E0A0E6B0E02E
:10006000E6ECF5E002C005900D92A836B107D9F78D
:1000700020E0A8E6B0E001C01D92A938B207E1F780
:10008000FCD09FC2BDCF823089F018F4813051F08E
:100090000895833019F0843009F008958CB58F7D70
:1000A0008CBD08958AB58F778ABD08958AB58F7DF6
:1000B000FBCF1F93CF93DF93282F30E0F901EC5B48
:1000C000FF4F8491F901E65CFF4FD491F901E05DA7
:1000D000FF4FC491CC23A1F0162F8111D4DFEC2F58
:1000E000F0E0EE0FFF1FE65DFF4FA591B4918FB7D3
:1000F000F894EC91111108C0D095DE23DC938FBFEA
:10010000DF91CF911F910895DE2BF8CFCF93DF932E
:1001100090E0FC01E65CFF4F2491805D9F4FFC0165
:1001200084918823C9F090E0880F991FFC01EC5D51
:10013000FF4FA591B491FC01E65DFF4FC591D491AD
:1001400061110DC09FB7F8948C91209582238C93F8
:100150008881282328839FBFDF91CF910895623043
:1001600051F49FB7F8943C91822F809583238C9310
:10017000E8812E2BEFCF8FB7F894EC912E2B2C9398
:100180008FBFEACF2FB7F8948091850090918600B9
:10019000A0918700B09188002FBF80936C0090934E
:1001A0006D00A0936E00B0936F0081E080937000AB
:1001B00061E084E0ABDF60E084E07BCF61E083E07E
:1001C00078DF1092610010926000809171008823A6
:1001D00039F084E090E0909363008093620008958A
:1001E00082E090E0F8CF1F920F920FB60F92112489
:1001F0002F933F938F939F93AF93BF9380918500ED
:1002000090918600A0918700B09188003091840081
:1002100023E0230F2D3758F50196A11DB11D209322
:1002200084008093850090938600A0938700B0930C
:1002300088008091800090918100A0918200B0910F
:1002400083000196A11DB11D8093800090938100D1
:10025000A0938200B0938300BF91AF919F918F9143
:100260003F912F910F900FBE0F901F90189526E889
:10027000230F0296A11DB11DD2CF78948AB582605A
:100280008ABD8AB581608ABD83B7826083BF83B728
:10029000816083BF89B7826089BF80B7826080BF79
:1002A00080B7816080BF329A319A309A379A8CB584
:1002B00080648CBD62E080E029DF61E081E026DFC0
:1002C00061E082E023DF61E083E020DF60E084E042
:1002D0001DDF90E080E05FD1811103C081E0809359
:1002E000710080917100882309F412C160E081E0FF
:1002F000E0DE61E082E0DDDE60E083E0DADE5EDF4A
:1003000041DFC4E4D0E00AE310E090E3E92E90E09E
:10031000F92E5524539420E0C22E20E0D22E6624DC
:1003200063948FB7F8948090850090908600A09099
:100330008700B09088008FBF80927C0090927D00F3
:10034000A0927E00B0927F00FE018491F80174902B
:10035000F7014490442009F4E0C0811194DEE42DBB
:10036000F0E0EE0FFF1FE25EFF4FA591B4918C917C
:10037000782231E020E009F430E0832F922F90932F
:100380006700809366002091640030916500281713
:100390003907A9F0909365008093640020917B0059
:1003A000892B09F0BDC021110AC060927A008092A9
:1003B000760090927700A0927800B09279008091B8
:1003C0007A00882389F18091760090917700A0913E
:1003D0007800B09179008053984FAF4FBF4F881588
:1003E0009905AA05BB0500F5B090710010927A003E
:1003F000B524B0927100E2DEC5DE90E080E0BB2063
:1004000009F49DC0C8D060E081119EC081E090E0F9
:100410002091660030916700232B11F090E080E07E
:10042000909365008093640080917B008823D1F0D5
:100430008091720090917300A0917400B09175004A
:10044000C296A11DB11D40917C0050917D0060912C
:100450007E0070917F0084179507A607B70710F4F8
:1004600010927B0080917100882309F471C060E0D4
:1004700081E01FDE61E082E01CDE80917000882355
:10048000F1F080916C0090916D00A0916E00B091A0
:100490006F00845D9E4FAF4FBF4F40917C005091E5
:1004A0007D0060917E0070917F0084179507A607FC
:1004B000B70728F41092700060E084E027DEA09077
:1004C0006200B0906300F2E0AF16B104DCF040913E
:1004D0007C0050917D0060917E0070917F00809142
:1004E000600090916100A816B906B9F1B092610060
:1004F000A0926000409368005093690060936A0086
:1005000070936B00C114D10409F40BCF79DD09CFCE
:1005100061E081E0CEDD60E0EDCE90E080E02FCFC5
:1005200010927A00211180CF60927B00809272003D
:1005300090927300A0927400B092750040CF2BD0BF
:100540008F3F09F463CF6FEF90E080E02CD05ECF57
:1005500061E081E0AEDD60E08ECF80916800909137
:100560006900A0916A00B0916B0086509F4FAF4F19
:10057000BF4F84179507A607B70720F660E0A0FCD9
:1005800061E083E096DD81E0A81AB108B0926300D3
:10059000A0926200B7CFE199FECF9FBB8EBBE09ADD
:1005A00099278DB30895262FE199FECF1CBA9FBBE2
:1005B0008EBB2DBB0FB6F894E29AE19A0FBE01965E
:0605C0000895F894FFCF3E
:0805C600010001000100010029
:00000001FF
