:1000000026C040C03FC03EC03DC0EDC03BC03AC06E
:1000100039C038C037C036C035C034C033C0000026
:10002000000037000000000038000000000036002B
:10003000020202020202020202020102040810206D
:100040002004100801020000040000000000112438
:100050001FBECFE5D2E0DEBFCDBF10E0A0E6B0E02E
:10006000E0E3F5E002C005900D92A836B107D9F79C
:1000700020E0A8E6B0E001C01D92A938B207E1F780
:10008000FCD054C2BDCF823089F018F4813051F0D9
:100090000895833019F0843009F008958CB58F7D70
:1000A0008CBD08958AB58F778ABD08958AB58F7DF6
:1000B000FBCF1F93CF93DF93282F30E0F901EC5B48
:1000C000FF4F8491F901E65CFF4FD491F901E05DA7
:1000D000FF4FC491CC23A1F0162F8111D4DFEC2F58
:1000E000F0E0EE0FFF1FEC5DFF4FA591B4918FB7CD
:1000F000F894EC91111108C0D095DE23DC938FBFEA
:10010000DF91CF911F910895DE2BF8CFCF93DF932E
:1001100090E0FC01E65CFF4F2491805D9F4FFC0165
:1001200084918823C9F090E0880F991FFC01E25E5A
:10013000FF4FA591B491FC01EC5DFF4FC591D491A7
:1001400061110DC09FB7F8948C91209582238C93F8
:100150008881282328839FBFDF91CF910895623043
:1001600051F49FB7F8943C91822F809583238C9310
:10017000E8812E2BEFCF8FB7F894EC912E2B2C9398
:100180008FBFEACF2FB7F89480916D0090916E00E9
:10019000A0916F00B09170002FBF80937500909375
:1001A0007600A0937700B093780081E08093790087
:1001B00061E084E0ABDF60E084E07BCF61E083E07E
:1001C00078DF109261001092600080917A0088239D
:1001D00039F084E090E0909363008093620008958A
:1001E00082E090E0F8CF1F920F920FB60F92112489
:1001F0002F933F938F939F93AF93BF9380916D0005
:1002000090916E00A0916F00B091700030916C00E1
:1002100023E0230F2D3758F50196A11DB11D209322
:100220006C0080936D0090936E00A0936F00B0936C
:1002300070008091680090916900A0916A00B0916F
:100240006B000196A11DB11D809368009093690019
:10025000A0936A00B0936B00BF91AF919F918F9173
:100260003F912F910F900FBE0F901F90189526E889
:10027000230F0296A11DB11DD2CF78948AB582605A
:100280008ABD8AB581608ABD83B7826083BF83B728
:10029000816083BF89B7826089BF80B7826080BF79
:1002A00080B7816080BF329A319A309A379A8CB584
:1002B00080648CBD62E080E029DF61E081E026DFC0
:1002C00061E082E023DF61E083E020DF60E084E042
:1002D0001DDF61E081E0EDDE60E082E0EADE60E00B
:1002E00083E0E7DE6BDF4EDF04E410E09AE3E92E03
:1002F00090E0F92E20E3C22E20E0D22E88248394B1
:1003000030E0A32E30E0B32E992493948FB7F89465
:1003100040906D0050906E0060906F007090700083
:100320008FBF409285005092860060928700709245
:100330008800F8018491F701C491F601D491DD237E
:1003400009F4C1C081119FDEED2FF0E0EE0FFF1F19
:10035000E65DFF4FA591B4918C91C82391E080E0B8
:1003600009F490E0C92FD82FD0936700C09366009E
:1003700080916400909165008C179D07A9F0809191
:100380008400D0936500C0936400209709F09EC05C
:1003900081110AC09092830040927F0050928000A9
:1003A000609281007092820080918300882301F125
:1003B00080917F0090918000A0918100B091820097
:1003C0008053984FAF4FBF4F84159505A605B705CD
:1003D00078F480917A0010928300882580937A00C7
:1003E000EDDED0DEF1E0CF27D0936500C09364004E
:1003F00080918400882391F080917B0090917C0013
:10040000A0917D00B0917E00C296A11DB11D841502
:100410009505A605B70510F41092840080917A0026
:10042000882309F462C060E081E043DE61E082E09D
:1004300040DE809179008823F1F0809175009091E1
:100440007600A0917700B0917800845D9E4FAF4F09
:10045000BF4F409185005091860060918700709158
:10046000880084179507A607B70728F4109279002B
:1004700060E084E04BDEC0916200D0916300C23046
:10048000D105DCF040918500509186006091870095
:10049000709188008091600090916100C817D90721
:1004A00049F1D0936100C093600040937100509374
:1004B00072006093730070937400A114B10409F486
:1004C00025CF9EDD23CFD0E0C0E04ECF1092830039
:1004D00081118ECF9092840040927B0050927C00DC
:1004E00060927D0070927E005FCF61E081E0E1DD8F
:1004F00060E09DCF8091710090917200A091730097
:10050000B091740086509F4FAF4FBF4F841795072F
:10051000A607B70790F660E0C0FD61E083E0C9DDA3
:100520002197D0936300C0936200C7CFF894FFCFA8
:080530000100010001000100BF
:00000001FF
